{
  "_format": "hh-sol-artifact-1",
  "contractName": "ManufacturerRegistry",
  "sourceName": "contracts/ManufacturerRegistry.sol",
  "abi": [
    {
      "inputs": [
        {
          "internalType": "address",
          "name": "_regulator",
          "type": "address"
        }
      ],
      "stateMutability": "nonpayable",
      "type": "constructor"
    },
    {
      "inputs": [
        {
          "internalType": "address",
          "name": "owner",
          "type": "address"
        }
      ],
      "name": "OwnableInvalidOwner",
      "type": "error"
    },
    {
      "inputs": [
        {
          "internalType": "address",
          "name": "account",
          "type": "address"
        }
      ],
      "name": "OwnableUnauthorizedAccount",
      "type": "error"
    },
    {
      "anonymous": false,
      "inputs": [
        {
          "indexed": true,
          "internalType": "address",
          "name": "manufacturer",
          "type": "address"
        }
      ],
      "name": "ManufacturerApproved",
      "type": "event"
    },
    {
      "anonymous": false,
      "inputs": [
        {
          "indexed": true,
          "internalType": "address",
          "name": "manufacturer",
          "type": "address"
        }
      ],
      "name": "ManufacturerRevoked",
      "type": "event"
    },
    {
      "anonymous": false,
      "inputs": [
        {
          "indexed": true,
          "internalType": "address",
          "name": "previousOwner",
          "type": "address"
        },
        {
          "indexed": true,
          "internalType": "address",
          "name": "newOwner",
          "type": "address"
        }
      ],
      "name": "OwnershipTransferred",
      "type": "event"
    },
    {
      "inputs": [
        {
          "internalType": "address",
          "name": "manufacturer",
          "type": "address"
        }
      ],
      "name": "approveManufacturer",
      "outputs": [],
      "stateMutability": "nonpayable",
      "type": "function"
    },
    {
      "inputs": [
        {
          "internalType": "address",
          "name": "",
          "type": "address"
        }
      ],
      "name": "approvedManufacturers",
      "outputs": [
        {
          "internalType": "bool",
          "name": "",
          "type": "bool"
        }
      ],
      "stateMutability": "view",
      "type": "function"
    },
    {
      "inputs": [
        {
          "internalType": "address",
          "name": "manufacturer",
          "type": "address"
        }
      ],
      "name": "isManufacturerApproved",
      "outputs": [
        {
          "internalType": "bool",
          "name": "",
          "type": "bool"
        }
      ],
      "stateMutability": "view",
      "type": "function"
    },
    {
      "inputs": [],
      "name": "owner",
      "outputs": [
        {
          "internalType": "address",
          "name": "",
          "type": "address"
        }
      ],
      "stateMutability": "view",
      "type": "function"
    },
    {
      "inputs": [],
      "name": "regulator",
      "outputs": [
        {
          "internalType": "address",
          "name": "",
          "type": "address"
        }
      ],
      "stateMutability": "view",
      "type": "function"
    },
    {
      "inputs": [],
      "name": "renounceOwnership",
      "outputs": [],
      "stateMutability": "nonpayable",
      "type": "function"
    },
    {
      "inputs": [
        {
          "internalType": "address",
          "name": "manufacturer",
          "type": "address"
        }
      ],
      "name": "revokeManufacturer",
      "outputs": [],
      "stateMutability": "nonpayable",
      "type": "function"
    },
    {
      "inputs": [
        {
          "internalType": "address",
          "name": "newOwner",
          "type": "address"
        }
      ],
      "name": "transferOwnership",
      "outputs": [],
      "stateMutability": "nonpayable",
      "type": "function"
    }
  ],
  "bytecode": "0x60806040523480156200001157600080fd5b5060405162000da938038062000da9833981810160405281019062000037919062000235565b80600073ffffffffffffffffffffffffffffffffffffffff168173ffffffffffffffffffffffffffffffffffffffff1603620000ad5760006040517f1e4fbdf7000000000000000000000000000000000000000000000000000000008152600401620000a4919062000278565b60405180910390fd5b620000be816200010760201b60201c565b5080600160006101000a81548173ffffffffffffffffffffffffffffffffffffffff021916908373ffffffffffffffffffffffffffffffffffffffff1602179055505062000295565b60008060009054906101000a900473ffffffffffffffffffffffffffffffffffffffff169050816000806101000a81548173ffffffffffffffffffffffffffffffffffffffff021916908373ffffffffffffffffffffffffffffffffffffffff1602179055508173ffffffffffffffffffffffffffffffffffffffff168173ffffffffffffffffffffffffffffffffffffffff167f8be0079c531659141344cd1fd0a4f28419497f9722a3daafe3b4186f6b6457e060405160405180910390a35050565b600080fd5b600073ffffffffffffffffffffffffffffffffffffffff82169050919050565b6000620001fd82620001d0565b9050919050565b6200020f81620001f0565b81146200021b57600080fd5b50565b6000815190506200022f8162000204565b92915050565b6000602082840312156200024e576200024d620001cb565b5b60006200025e848285016200021e565b91505092915050565b6200027281620001f0565b82525050565b60006020820190506200028f600083018462000267565b92915050565b610b0480620002a56000396000f3fe608060405234801561001057600080fd5b50600436106100885760003560e01c8063715018a61161005b578063715018a6146101255780638da5cb5b1461012f578063dd8fee141461014d578063f2fde38b1461016b57610088565b806318b452381461008d57806343f34b27146100a9578063499a4ada146100c55780635809b83b146100f5575b600080fd5b6100a760048036038101906100a29190610880565b610187565b005b6100c360048036038101906100be9190610880565b610341565b005b6100df60048036038101906100da9190610880565b61056b565b6040516100ec91906108c8565b60405180910390f35b61010f600480360381019061010a9190610880565b61058b565b60405161011c91906108c8565b60405180910390f35b61012d6105e1565b005b6101376105f5565b60405161014491906108f2565b60405180910390f35b61015561061e565b60405161016291906108f2565b60405180910390f35b61018560048036038101906101809190610880565b610644565b005b600160009054906101000a900473ffffffffffffffffffffffffffffffffffffffff1673ffffffffffffffffffffffffffffffffffffffff163373ffffffffffffffffffffffffffffffffffffffff1614610217576040517f08c379a000000000000000000000000000000000000000000000000000000000815260040161020e9061096a565b60405180910390fd5b600260008273ffffffffffffffffffffffffffffffffffffffff1673ffffffffffffffffffffffffffffffffffffffff16815260200190815260200160002060009054906101000a900460ff166102a3576040517f08c379a000000000000000000000000000000000000000000000000000000000815260040161029a906109d6565b60405180910390fd5b6000600260008373ffffffffffffffffffffffffffffffffffffffff1673ffffffffffffffffffffffffffffffffffffffff16815260200190815260200160002060006101000a81548160ff0219169083151502179055508073ffffffffffffffffffffffffffffffffffffffff167fd45d196334d0d06ea301cc8b965da9c0afd7dd9bd61ebcf127f0575c45e7b46b60405160405180910390a250565b600160009054906101000a900473ffffffffffffffffffffffffffffffffffffffff1673ffffffffffffffffffffffffffffffffffffffff163373ffffffffffffffffffffffffffffffffffffffff16146103d1576040517f08c379a00000000000000000000000000000000000000000000000000000000081526004016103c89061096a565b60405180910390fd5b600073ffffffffffffffffffffffffffffffffffffffff168173ffffffffffffffffffffffffffffffffffffffff1603610440576040517f08c379a000000000000000000000000000000000000000000000000000000000815260040161043790610a42565b60405180910390fd5b600260008273ffffffffffffffffffffffffffffffffffffffff1673ffffffffffffffffffffffffffffffffffffffff16815260200190815260200160002060009054906101000a900460ff16156104cd576040517f08c379a00000000000000000000000000000000000000000000000000000000081526004016104c490610aae565b60405180910390fd5b6001600260008373ffffffffffffffffffffffffffffffffffffffff1673ffffffffffffffffffffffffffffffffffffffff16815260200190815260200160002060006101000a81548160ff0219169083151502179055508073ffffffffffffffffffffffffffffffffffffffff167f5e048240fbceca23ebdfa6f47259584abae5efdc67fd92f82e007d0581b7cd0260405160405180910390a250565b60026020528060005260406000206000915054906101000a900460ff1681565b6000600260008373ffffffffffffffffffffffffffffffffffffffff1673ffffffffffffffffffffffffffffffffffffffff16815260200190815260200160002060009054906101000a900460ff169050919050565b6105e96106ca565b6105f36000610751565b565b60008060009054906101000a900473ffffffffffffffffffffffffffffffffffffffff16905090565b600160009054906101000a900473ffffffffffffffffffffffffffffffffffffffff1681565b61064c6106ca565b600073ffffffffffffffffffffffffffffffffffffffff168173ffffffffffffffffffffffffffffffffffffffff16036106be5760006040517f1e4fbdf70000000000000000000000000000000000000000000000000000000081526004016106b591906108f2565b60405180910390fd5b6106c781610751565b50565b6106d2610815565b73ffffffffffffffffffffffffffffffffffffffff166106f06105f5565b73ffffffffffffffffffffffffffffffffffffffff161461074f57610713610815565b6040517f118cdaa700000000000000000000000000000000000000000000000000000000815260040161074691906108f2565b60405180910390fd5b565b60008060009054906101000a900473ffffffffffffffffffffffffffffffffffffffff169050816000806101000a81548173ffffffffffffffffffffffffffffffffffffffff021916908373ffffffffffffffffffffffffffffffffffffffff1602179055508173ffffffffffffffffffffffffffffffffffffffff168173ffffffffffffffffffffffffffffffffffffffff167f8be0079c531659141344cd1fd0a4f28419497f9722a3daafe3b4186f6b6457e060405160405180910390a35050565b600033905090565b600080fd5b600073ffffffffffffffffffffffffffffffffffffffff82169050919050565b600061084d82610822565b9050919050565b61085d81610842565b811461086857600080fd5b50565b60008135905061087a81610854565b92915050565b6000602082840312156108965761089561081d565b5b60006108a48482850161086b565b91505092915050565b60008115159050919050565b6108c2816108ad565b82525050565b60006020820190506108dd60008301846108b9565b92915050565b6108ec81610842565b82525050565b600060208201905061090760008301846108e3565b92915050565b600082825260208201905092915050565b7f4f6e6c7920726567756c61746f72000000000000000000000000000000000000600082015250565b6000610954600e8361090d565b915061095f8261091e565b602082019050919050565b6000602082019050818103600083015261098381610947565b9050919050565b7f4e6f7420617070726f7665640000000000000000000000000000000000000000600082015250565b60006109c0600c8361090d565b91506109cb8261098a565b602082019050919050565b600060208201905081810360008301526109ef816109b3565b9050919050565b7f496e76616c6964206d616e756661637475726572000000000000000000000000600082015250565b6000610a2c60148361090d565b9150610a37826109f6565b602082019050919050565b60006020820190508181036000830152610a5b81610a1f565b9050919050565b7f416c726561647920617070726f76656400000000000000000000000000000000600082015250565b6000610a9860108361090d565b9150610aa382610a62565b602082019050919050565b60006020820190508181036000830152610ac781610a8b565b905091905056fea26469706673582212208280c2806541411f7da7f00b4a8125993f4716915b982f5e3b93e40a59a0372164736f6c63430008160033",
  "linkReferences": {},
  "deployedLinkReferences": {}
}