{
  "_format": "hh-sol-artifact-1",
  "contractName": "ProductRegistry",
  "sourceName": "contracts/ProductRegistry.sol",
  "abi": [
    {
      "inputs": [
        {
          "internalType": "address",
          "name": "_manufacturerRegistry",
          "type": "address"
        }
      ],
      "stateMutability": "nonpayable",
      "type": "constructor"
    },
    {
      "inputs": [],
      "name": "ReentrancyGuardReentrantCall",
      "type": "error"
    },
    {
      "anonymous": false,
      "inputs": [
        {
          "indexed": true,
          "internalType": "uint256",
          "name": "productId",
          "type": "uint256"
        }
      ],
      "name": "ProductRecalled",
      "type": "event"
    },
    {
      "anonymous": false,
      "inputs": [
        {
          "indexed": true,
          "internalType": "uint256",
          "name": "productId",
          "type": "uint256"
        },
        {
          "indexed": true,
          "internalType": "address",
          "name": "manufacturer",
          "type": "address"
        }
      ],
      "name": "ProductRegistered",
      "type": "event"
    },
    {
      "anonymous": false,
      "inputs": [
        {
          "indexed": true,
          "internalType": "uint256",
          "name": "productId",
          "type": "uint256"
        },
        {
          "indexed": true,
          "internalType": "address",
          "name": "consumer",
          "type": "address"
        },
        {
          "indexed": false,
          "internalType": "bool",
          "name": "valid",
          "type": "bool"
        }
      ],
      "name": "ProductVerified",
      "type": "event"
    },
    {
      "inputs": [
        {
          "internalType": "uint256",
          "name": "productId",
          "type": "uint256"
        }
      ],
      "name": "getProduct",
      "outputs": [
        {
          "components": [
            {
              "internalType": "uint256",
              "name": "productId",
              "type": "uint256"
            },
            {
              "internalType": "address",
              "name": "manufacturer",
              "type": "address"
            },
            {
              "internalType": "string",
              "name": "name",
              "type": "string"
            },
            {
              "internalType": "string",
              "name": "batchNumber",
              "type": "string"
            },
            {
              "internalType": "string",
              "name": "expiryDate",
              "type": "string"
            },
            {
              "internalType": "string",
              "name": "qrCodeHash",
              "type": "string"
            },
            {
              "internalType": "string",
              "name": "metadataURI",
              "type": "string"
            },
            {
              "internalType": "bool",
              "name": "active",
              "type": "bool"
            },
            {
              "internalType": "uint256",
              "name": "timestamp",
              "type": "uint256"
            }
          ],
          "internalType": "struct ProductRegistry.Product",
          "name": "",
          "type": "tuple"
        }
      ],
      "stateMutability": "view",
      "type": "function"
    },
    {
      "inputs": [],
      "name": "getTotalProducts",
      "outputs": [
        {
          "internalType": "uint256",
          "name": "",
          "type": "uint256"
        }
      ],
      "stateMutability": "view",
      "type": "function"
    },
    {
      "inputs": [],
      "name": "manufacturerRegistry",
      "outputs": [
        {
          "internalType": "address",
          "name": "",
          "type": "address"
        }
      ],
      "stateMutability": "view",
      "type": "function"
    },
    {
      "inputs": [],
      "name": "productCounter",
      "outputs": [
        {
          "internalType": "uint256",
          "name": "",
          "type": "uint256"
        }
      ],
      "stateMutability": "view",
      "type": "function"
    },
    {
      "inputs": [
        {
          "internalType": "uint256",
          "name": "",
          "type": "uint256"
        }
      ],
      "name": "products",
      "outputs": [
        {
          "internalType": "uint256",
          "name": "productId",
          "type": "uint256"
        },
        {
          "internalType": "address",
          "name": "manufacturer",
          "type": "address"
        },
        {
          "internalType": "string",
          "name": "name",
          "type": "string"
        },
        {
          "internalType": "string",
          "name": "batchNumber",
          "type": "string"
        },
        {
          "internalType": "string",
          "name": "expiryDate",
          "type": "string"
        },
        {
          "internalType": "string",
          "name": "qrCodeHash",
          "type": "string"
        },
        {
          "internalType": "string",
          "name": "metadataURI",
          "type": "string"
        },
        {
          "internalType": "bool",
          "name": "active",
          "type": "bool"
        },
        {
          "internalType": "uint256",
          "name": "timestamp",
          "type": "uint256"
        }
      ],
      "stateMutability": "view",
      "type": "function"
    },
    {
      "inputs": [
        {
          "internalType": "uint256",
          "name": "productId",
          "type": "uint256"
        }
      ],
      "name": "recallProduct",
      "outputs": [],
      "stateMutability": "nonpayable",
      "type": "function"
    },
    {
      "inputs": [
        {
          "internalType": "string",
          "name": "name",
          "type": "string"
        },
        {
          "internalType": "string",
          "name": "batchNumber",
          "type": "string"
        },
        {
          "internalType": "string",
          "name": "expiryDate",
          "type": "string"
        },
        {
          "internalType": "string",
          "name": "qrCodeHash",
          "type": "string"
        },
        {
          "internalType": "string",
          "name": "metadataURI",
          "type": "string"
        }
      ],
      "name": "registerProduct",
      "outputs": [],
      "stateMutability": "nonpayable",
      "type": "function"
    },
    {
      "inputs": [
        {
          "internalType": "uint256",
          "name": "productId",
          "type": "uint256"
        },
        {
          "internalType": "string",
          "name": "qrCodeHash",
          "type": "string"
        }
      ],
      "name": "verifyProduct",
      "outputs": [
        {
          "internalType": "bool",
          "name": "valid",
          "type": "bool"
        },
        {
          "components": [
            {
              "internalType": "uint256",
              "name": "productId",
              "type": "uint256"
            },
            {
              "internalType": "address",
              "name": "manufacturer",
              "type": "address"
            },
            {
              "internalType": "string",
              "name": "name",
              "type": "string"
            },
            {
              "internalType": "string",
              "name": "batchNumber",
              "type": "string"
            },
            {
              "internalType": "string",
              "name": "expiryDate",
              "type": "string"
            },
            {
              "internalType": "string",
              "name": "qrCodeHash",
              "type": "string"
            },
            {
              "internalType": "string",
              "name": "metadataURI",
              "type": "string"
            },
            {
              "internalType": "bool",
              "name": "active",
              "type": "bool"
            },
            {
              "internalType": "uint256",
              "name": "timestamp",
              "type": "uint256"
            }
          ],
          "internalType": "struct ProductRegistry.Product",
          "name": "product",
          "type": "tuple"
        }
      ],
      "stateMutability": "nonpayable",
      "type": "function"
    }
  ],
  "bytecode": "0x60806040523480156200001157600080fd5b506040516200251b3803806200251b8339818101604052810190620000379190620000f1565b600160008190555080600460006101000a81548173ffffffffffffffffffffffffffffffffffffffff021916908373ffffffffffffffffffffffffffffffffffffffff1602179055505062000123565b600080fd5b600073ffffffffffffffffffffffffffffffffffffffff82169050919050565b6000620000b9826200008c565b9050919050565b620000cb81620000ac565b8114620000d757600080fd5b50565b600081519050620000eb81620000c0565b92915050565b6000602082840312156200010a576200010962000087565b5b60006200011a84828501620000da565b91505092915050565b6123e880620001336000396000f3fe608060405234801561001057600080fd5b50600436106100885760003560e01c80637acc0b201161005b5780637acc0b2014610118578063ac20be6714610150578063b9db15b41461016c578063c49f97751461019c57610088565b80630fd606121461008d5780631f16653b146100ab5780633267721c146100c9578063570aea8a146100fa575b600080fd5b6100956101b8565b6040516100a29190611513565b60405180910390f35b6100b36101de565b6040516100c09190611547565b60405180910390f35b6100e360048036038101906100de91906116e8565b6101e4565b6040516100f19291906118ec565b60405180910390f35b610102610677565b60405161010f9190611547565b60405180910390f35b610132600480360381019061012d919061191c565b610681565b60405161014799989796959493929190611993565b60405180910390f35b61016a6004803603810190610165919061191c565b6109a4565b005b6101866004803603810190610181919061191c565b610b3d565b6040516101939190611a43565b60405180910390f35b6101b660048036038101906101b19190611a65565b610f1b565b005b600460009054906101000a900473ffffffffffffffffffffffffffffffffffffffff1681565b60035481565b60006101ee61146e565b60008411801561020057506003548411155b61023f576040517f08c379a000000000000000000000000000000000000000000000000000000000815260040161023690611bb8565b60405180910390fd5b6001600085815260200190815260200160002060405180610120016040529081600082015481526020016001820160009054906101000a900473ffffffffffffffffffffffffffffffffffffffff1673ffffffffffffffffffffffffffffffffffffffff1673ffffffffffffffffffffffffffffffffffffffff1681526020016002820180546102ce90611c07565b80601f01602080910402602001604051908101604052809291908181526020018280546102fa90611c07565b80156103475780601f1061031c57610100808354040283529160200191610347565b820191906000526020600020905b81548152906001019060200180831161032a57829003601f168201915b5050505050815260200160038201805461036090611c07565b80601f016020809104026020016040519081016040528092919081815260200182805461038c90611c07565b80156103d95780601f106103ae576101008083540402835291602001916103d9565b820191906000526020600020905b8154815290600101906020018083116103bc57829003601f168201915b505050505081526020016004820180546103f290611c07565b80601f016020809104026020016040519081016040528092919081815260200182805461041e90611c07565b801561046b5780601f106104405761010080835404028352916020019161046b565b820191906000526020600020905b81548152906001019060200180831161044e57829003601f168201915b5050505050815260200160058201805461048490611c07565b80601f01602080910402602001604051908101604052809291908181526020018280546104b090611c07565b80156104fd5780601f106104d2576101008083540402835291602001916104fd565b820191906000526020600020905b8154815290600101906020018083116104e057829003601f168201915b5050505050815260200160068201805461051690611c07565b80601f016020809104026020016040519081016040528092919081815260200182805461054290611c07565b801561058f5780601f106105645761010080835404028352916020019161058f565b820191906000526020600020905b81548152906001019060200180831161057257829003601f168201915b505050505081526020016007820160009054906101000a900460ff1615151515815260200160088201548152505090508060e00151801561061f5750826040516020016105dc9190611c74565b604051602081830303815290604052805190602001208160a001516040516020016106079190611c74565b60405160208183030381529060405280519060200120145b91503373ffffffffffffffffffffffffffffffffffffffff16847fb43eb3ef0ff077f2147c20afaaaa40220861fc98758e1d746492a1a1142c3f98846040516106689190611c8b565b60405180910390a39250929050565b6000600354905090565b60016020528060005260406000206000915090508060000154908060010160009054906101000a900473ffffffffffffffffffffffffffffffffffffffff16908060020180546106d090611c07565b80601f01602080910402602001604051908101604052809291908181526020018280546106fc90611c07565b80156107495780601f1061071e57610100808354040283529160200191610749565b820191906000526020600020905b81548152906001019060200180831161072c57829003601f168201915b50505050509080600301805461075e90611c07565b80601f016020809104026020016040519081016040528092919081815260200182805461078a90611c07565b80156107d75780601f106107ac576101008083540402835291602001916107d7565b820191906000526020600020905b8154815290600101906020018083116107ba57829003601f168201915b5050505050908060040180546107ec90611c07565b80601f016020809104026020016040519081016040528092919081815260200182805461081890611c07565b80156108655780601f1061083a57610100808354040283529160200191610865565b820191906000526020600020905b81548152906001019060200180831161084857829003601f168201915b50505050509080600501805461087a90611c07565b80601f01602080910402602001604051908101604052809291908181526020018280546108a690611c07565b80156108f35780601f106108c8576101008083540402835291602001916108f3565b820191906000526020600020905b8154815290600101906020018083116108d657829003601f168201915b50505050509080600601805461090890611c07565b80601f016020809104026020016040519081016040528092919081815260200182805461093490611c07565b80156109815780601f1061095657610100808354040283529160200191610981565b820191906000526020600020905b81548152906001019060200180831161096457829003601f168201915b5050505050908060070160009054906101000a900460ff16908060080154905089565b6000811180156109b657506003548111155b6109f5576040517f08c379a00000000000000000000000000000000000000000000000000000000081526004016109ec90611bb8565b60405180910390fd5b60006001600083815260200190815260200160002090503373ffffffffffffffffffffffffffffffffffffffff168160010160009054906101000a900473ffffffffffffffffffffffffffffffffffffffff1673ffffffffffffffffffffffffffffffffffffffff1614610a9e576040517f08c379a0000000000000000000000000000000000000000000000000000000008152600401610a9590611cf2565b60405180910390fd5b8060070160009054906101000a900460ff16610aef576040517f08c379a0000000000000000000000000000000000000000000000000000000008152600401610ae690611d5e565b60405180910390fd5b60008160070160006101000a81548160ff021916908315150217905550817fabd9f5adc66d57910a490cba4abc3a67999389251b8ef3e4d9843138ef1e17d460405160405180910390a25050565b610b4561146e565b600082118015610b5757506003548211155b610b96576040517f08c379a0000000000000000000000000000000000000000000000000000000008152600401610b8d90611bb8565b60405180910390fd5b6001600083815260200190815260200160002060405180610120016040529081600082015481526020016001820160009054906101000a900473ffffffffffffffffffffffffffffffffffffffff1673ffffffffffffffffffffffffffffffffffffffff1673ffffffffffffffffffffffffffffffffffffffff168152602001600282018054610c2590611c07565b80601f0160208091040260200160405190810160405280929190818152602001828054610c5190611c07565b8015610c9e5780601f10610c7357610100808354040283529160200191610c9e565b820191906000526020600020905b815481529060010190602001808311610c8157829003601f168201915b50505050508152602001600382018054610cb790611c07565b80601f0160208091040260200160405190810160405280929190818152602001828054610ce390611c07565b8015610d305780601f10610d0557610100808354040283529160200191610d30565b820191906000526020600020905b815481529060010190602001808311610d1357829003601f168201915b50505050508152602001600482018054610d4990611c07565b80601f0160208091040260200160405190810160405280929190818152602001828054610d7590611c07565b8015610dc25780601f10610d9757610100808354040283529160200191610dc2565b820191906000526020600020905b815481529060010190602001808311610da557829003601f168201915b50505050508152602001600582018054610ddb90611c07565b80601f0160208091040260200160405190810160405280929190818152602001828054610e0790611c07565b8015610e545780601f10610e2957610100808354040283529160200191610e54565b820191906000526020600020905b815481529060010190602001808311610e3757829003601f168201915b50505050508152602001600682018054610e6d90611c07565b80601f0160208091040260200160405190810160405280929190818152602001828054610e9990611c07565b8015610ee65780601f10610ebb57610100808354040283529160200191610ee6565b820191906000526020600020905b815481529060010190602001808311610ec957829003601f168201915b505050505081526020016007820160009054906101000a900460ff161515151581526020016008820154815250509050919050565b33600080600460009054906101000a900473ffffffffffffffffffffffffffffffffffffffff1673ffffffffffffffffffffffffffffffffffffffff1683604051602401610f699190611513565b6040516020818303038152906040527f5809b83b000000000000000000000000000000000000000000000000000000007bffffffffffffffffffffffffffffffffffffffffffffffffffffffff19166020820180517bffffffffffffffffffffffffffffffffffffffffffffffffffffffff8381831617835250505050604051610ff39190611dc5565b600060405180830381855afa9150503d806000811461102e576040519150601f19603f3d011682016040523d82523d6000602084013e611033565b606091505b50915091508180156110555750808060200190518101906110549190611e08565b5b611094576040517f08c379a000000000000000000000000000000000000000000000000000000000815260040161108b90611e81565b60405180910390fd5b61109c61141e565b60008851116110e0576040517f08c379a00000000000000000000000000000000000000000000000000000000081526004016110d790611eed565b60405180910390fd5b6000875111611124576040517f08c379a000000000000000000000000000000000000000000000000000000000815260040161111b90611f59565b60405180910390fd5b6000865111611168576040517f08c379a000000000000000000000000000000000000000000000000000000000815260040161115f90611fc5565b60405180910390fd5b60008551116111ac576040517f08c379a00000000000000000000000000000000000000000000000000000000081526004016111a390612031565b60405180910390fd5b6002856040516111bc9190611c74565b908152602001604051809103902060009054906101000a900460ff1615611218576040517f08c379a000000000000000000000000000000000000000000000000000000000815260040161120f9061209d565b60405180910390fd5b6003600081548092919061122b906120ec565b9190505550600060035490506040518061012001604052808281526020013373ffffffffffffffffffffffffffffffffffffffff1681526020018a815260200189815260200188815260200187815260200186815260200160011515815260200142815250600160008381526020019081526020016000206000820151816000015560208201518160010160006101000a81548173ffffffffffffffffffffffffffffffffffffffff021916908373ffffffffffffffffffffffffffffffffffffffff160217905550604082015181600201908161130991906122e0565b50606082015181600301908161131f91906122e0565b50608082015181600401908161133591906122e0565b5060a082015181600501908161134b91906122e0565b5060c082015181600601908161136191906122e0565b5060e08201518160070160006101000a81548160ff021916908315150217905550610100820151816008015590505060016002876040516113a29190611c74565b908152602001604051809103902060006101000a81548160ff0219169083151502179055503373ffffffffffffffffffffffffffffffffffffffff16817f73e014c0a076665d9511a27e878fadccb6d7171f5754ba1167a670023760b01560405160405180910390a350611414611464565b5050505050505050565b60026000540361145a576040517f3ee5aeb500000000000000000000000000000000000000000000000000000000815260040160405180910390fd5b6002600081905550565b6001600081905550565b60405180610120016040528060008152602001600073ffffffffffffffffffffffffffffffffffffffff1681526020016060815260200160608152602001606081526020016060815260200160608152602001600015158152602001600081525090565b600073ffffffffffffffffffffffffffffffffffffffff82169050919050565b60006114fd826114d2565b9050919050565b61150d816114f2565b82525050565b60006020820190506115286000830184611504565b92915050565b6000819050919050565b6115418161152e565b82525050565b600060208201905061155c6000830184611538565b92915050565b6000604051905090565b600080fd5b600080fd5b61157f8161152e565b811461158a57600080fd5b50565b60008135905061159c81611576565b92915050565b600080fd5b600080fd5b6000601f19601f8301169050919050565b7f4e487b7100000000000000000000000000000000000000000000000000000000600052604160045260246000fd5b6115f5826115ac565b810181811067ffffffffffffffff82111715611614576116136115bd565b5b80604052505050565b6000611627611562565b905061163382826115ec565b919050565b600067ffffffffffffffff821115611653576116526115bd565b5b61165c826115ac565b9050602081019050919050565b82818337600083830152505050565b600061168b61168684611638565b61161d565b9050828152602081018484840111156116a7576116a66115a7565b5b6116b2848285611669565b509392505050565b600082601f8301126116cf576116ce6115a2565b5b81356116df848260208601611678565b91505092915050565b600080604083850312156116ff576116fe61156c565b5b600061170d8582860161158d565b925050602083013567ffffffffffffffff81111561172e5761172d611571565b5b61173a858286016116ba565b9150509250929050565b60008115159050919050565b61175981611744565b82525050565b6117688161152e565b82525050565b611777816114f2565b82525050565b600081519050919050565b600082825260208201905092915050565b60005b838110156117b757808201518184015260208101905061179c565b60008484015250505050565b60006117ce8261177d565b6117d88185611788565b93506117e8818560208601611799565b6117f1816115ac565b840191505092915050565b61180581611744565b82525050565b600061012083016000830151611824600086018261175f565b506020830151611837602086018261176e565b506040830151848203604086015261184f82826117c3565b9150506060830151848203606086015261186982826117c3565b9150506080830151848203608086015261188382826117c3565b91505060a083015184820360a086015261189d82826117c3565b91505060c083015184820360c08601526118b782826117c3565b91505060e08301516118cc60e08601826117fc565b506101008301516118e161010086018261175f565b508091505092915050565b60006040820190506119016000830185611750565b8181036020830152611913818461180b565b90509392505050565b6000602082840312156119325761193161156c565b5b60006119408482850161158d565b91505092915050565b600082825260208201905092915050565b60006119658261177d565b61196f8185611949565b935061197f818560208601611799565b611988816115ac565b840191505092915050565b6000610120820190506119a9600083018c611538565b6119b6602083018b611504565b81810360408301526119c8818a61195a565b905081810360608301526119dc818961195a565b905081810360808301526119f0818861195a565b905081810360a0830152611a04818761195a565b905081810360c0830152611a18818661195a565b9050611a2760e0830185611750565b611a35610100830184611538565b9a9950505050505050505050565b60006020820190508181036000830152611a5d818461180b565b905092915050565b600080600080600060a08688031215611a8157611a8061156c565b5b600086013567ffffffffffffffff811115611a9f57611a9e611571565b5b611aab888289016116ba565b955050602086013567ffffffffffffffff811115611acc57611acb611571565b5b611ad8888289016116ba565b945050604086013567ffffffffffffffff811115611af957611af8611571565b5b611b05888289016116ba565b935050606086013567ffffffffffffffff811115611b2657611b25611571565b5b611b32888289016116ba565b925050608086013567ffffffffffffffff811115611b5357611b52611571565b5b611b5f888289016116ba565b9150509295509295909350565b7f496e76616c696420494400000000000000000000000000000000000000000000600082015250565b6000611ba2600a83611949565b9150611bad82611b6c565b602082019050919050565b60006020820190508181036000830152611bd181611b95565b9050919050565b7f4e487b7100000000000000000000000000000000000000000000000000000000600052602260045260246000fd5b60006002820490506001821680611c1f57607f821691505b602082108103611c3257611c31611bd8565b5b50919050565b600081905092915050565b6000611c4e8261177d565b611c588185611c38565b9350611c68818560208601611799565b80840191505092915050565b6000611c808284611c43565b915081905092915050565b6000602082019050611ca06000830184611750565b92915050565b7f4e6f74206d616e75666163747572657200000000000000000000000000000000600082015250565b6000611cdc601083611949565b9150611ce782611ca6565b602082019050919050565b60006020820190508181036000830152611d0b81611ccf565b9050919050565b7f416c726561647920696e61637469766500000000000000000000000000000000600082015250565b6000611d48601083611949565b9150611d5382611d12565b602082019050919050565b60006020820190508181036000830152611d7781611d3b565b9050919050565b600081519050919050565b600081905092915050565b6000611d9f82611d7e565b611da98185611d89565b9350611db9818560208601611799565b80840191505092915050565b6000611dd18284611d94565b915081905092915050565b611de581611744565b8114611df057600080fd5b50565b600081519050611e0281611ddc565b92915050565b600060208284031215611e1e57611e1d61156c565b5b6000611e2c84828501611df3565b91505092915050565b7f4e6f7420617070726f766564206d616e75666163747572657200000000000000600082015250565b6000611e6b601983611949565b9150611e7682611e35565b602082019050919050565b60006020820190508181036000830152611e9a81611e5e565b9050919050565b7f456d707479206e616d6500000000000000000000000000000000000000000000600082015250565b6000611ed7600a83611949565b9150611ee282611ea1565b602082019050919050565b60006020820190508181036000830152611f0681611eca565b9050919050565b7f456d707479206261746368000000000000000000000000000000000000000000600082015250565b6000611f43600b83611949565b9150611f4e82611f0d565b602082019050919050565b60006020820190508181036000830152611f7281611f36565b9050919050565b7f456d707479206578706972790000000000000000000000000000000000000000600082015250565b6000611faf600c83611949565b9150611fba82611f79565b602082019050919050565b60006020820190508181036000830152611fde81611fa2565b9050919050565b7f456d707479205152206861736800000000000000000000000000000000000000600082015250565b600061201b600d83611949565b915061202682611fe5565b602082019050919050565b6000602082019050818103600083015261204a8161200e565b9050919050565b7f515220616c726561647920757365640000000000000000000000000000000000600082015250565b6000612087600f83611949565b915061209282612051565b602082019050919050565b600060208201905081810360008301526120b68161207a565b9050919050565b7f4e487b7100000000000000000000000000000000000000000000000000000000600052601160045260246000fd5b60006120f78261152e565b91507fffffffffffffffffffffffffffffffffffffffffffffffffffffffffffffffff8203612129576121286120bd565b5b600182019050919050565b60008190508160005260206000209050919050565b60006020601f8301049050919050565b600082821b905092915050565b6000600883026121967fffffffffffffffffffffffffffffffffffffffffffffffffffffffffffffffff82612159565b6121a08683612159565b95508019841693508086168417925050509392505050565b6000819050919050565b60006121dd6121d86121d38461152e565b6121b8565b61152e565b9050919050565b6000819050919050565b6121f7836121c2565b61220b612203826121e4565b848454612166565b825550505050565b600090565b612220612213565b61222b8184846121ee565b505050565b5b8181101561224f57612244600082612218565b600181019050612231565b5050565b601f8211156122945761226581612134565b61226e84612149565b8101602085101561227d578190505b61229161228985612149565b830182612230565b50505b505050565b600082821c905092915050565b60006122b760001984600802612299565b1980831691505092915050565b60006122d083836122a6565b9150826002028217905092915050565b6122e98261177d565b67ffffffffffffffff811115612302576123016115bd565b5b61230c8254611c07565b612317828285612253565b600060209050601f83116001811461234a5760008415612338578287015190505b61234285826122c4565b8655506123aa565b601f19841661235886612134565b60005b828110156123805784890151825560018201915060208501945060208101905061235b565b8683101561239d5784890151612399601f8916826122a6565b8355505b6001600288020188555050505b50505050505056fea264697066735822122086cdf8f24c50dade0e51476b96b1fcd3f607ce5853cd0fd004ea2a3f8e71aa2b64736f6c63430008160033",
  "linkReferences": {},
  "deployedLinkReferences": {}
}